{
  "contractName": "CoinFlip",
  "abi": [
    {
      "anonymous": false,
      "inputs": [
        {
          "indexed": false,
          "internalType": "string",
          "name": "description",
          "type": "string"
        }
      ],
      "name": "LogNewProvableQuery",
      "type": "event"
    },
    {
      "anonymous": false,
      "inputs": [
        {
          "indexed": false,
          "internalType": "uint256",
          "name": "_coinState",
          "type": "uint256"
        }
      ],
      "name": "coinFlipped",
      "type": "event"
    },
    {
      "anonymous": false,
      "inputs": [
        {
          "indexed": false,
          "internalType": "uint256",
          "name": "randomNumber",
          "type": "uint256"
        }
      ],
      "name": "generatedRandomNumber",
      "type": "event"
    },
    {
      "constant": false,
      "inputs": [
        {
          "internalType": "bytes32",
          "name": "_myid",
          "type": "bytes32"
        },
        {
          "internalType": "string",
          "name": "_result",
          "type": "string"
        }
      ],
      "name": "__callback",
      "outputs": [],
      "payable": false,
      "stateMutability": "nonpayable",
      "type": "function"
    },
    {
      "constant": false,
      "inputs": [
        {
          "internalType": "bytes32",
          "name": "_queryId",
          "type": "bytes32"
        },
        {
          "internalType": "string",
          "name": "_result",
          "type": "string"
        },
        {
          "internalType": "bytes",
          "name": "_proof",
          "type": "bytes"
        }
      ],
      "name": "__callback",
      "outputs": [],
      "payable": false,
      "stateMutability": "nonpayable",
      "type": "function"
    },
    {
      "constant": false,
      "inputs": [
        {
          "internalType": "uint256",
          "name": "_latestNumber",
          "type": "uint256"
        }
      ],
      "name": "applyResult",
      "outputs": [],
      "payable": true,
      "stateMutability": "payable",
      "type": "function"
    },
    {
      "constant": false,
      "inputs": [
        {
          "internalType": "uint256",
          "name": "_betChoice",
          "type": "uint256"
        }
      ],
      "name": "placeBetAndFlip",
      "outputs": [],
      "payable": true,
      "stateMutability": "payable",
      "type": "function"
    },
    {
      "constant": true,
      "inputs": [],
      "name": "getRandomNumber",
      "outputs": [
        {
          "internalType": "uint256",
          "name": "",
          "type": "uint256"
        }
      ],
      "payable": false,
      "stateMutability": "view",
      "type": "function"
    },
    {
      "constant": true,
      "inputs": [],
      "name": "getCoinState",
      "outputs": [
        {
          "internalType": "uint256",
          "name": "",
          "type": "uint256"
        }
      ],
      "payable": false,
      "stateMutability": "view",
      "type": "function"
    },
    {
      "constant": true,
      "inputs": [],
      "name": "getOwner",
      "outputs": [
        {
          "internalType": "address",
          "name": "",
          "type": "address"
        }
      ],
      "payable": false,
      "stateMutability": "view",
      "type": "function"
    },
    {
      "constant": false,
      "inputs": [],
      "name": "withdrawContractBalance",
      "outputs": [
        {
          "internalType": "uint256",
          "name": "",
          "type": "uint256"
        }
      ],
      "payable": true,
      "stateMutability": "payable",
      "type": "function"
    },
    {
      "constant": false,
      "inputs": [],
      "name": "depositeContractBalance",
      "outputs": [
        {
          "internalType": "uint256",
          "name": "",
          "type": "uint256"
        }
      ],
      "payable": true,
      "stateMutability": "payable",
      "type": "function"
    },
    {
      "constant": true,
      "inputs": [],
      "name": "getContractBalance",
      "outputs": [
        {
          "internalType": "uint256",
          "name": "",
          "type": "uint256"
        }
      ],
      "payable": false,
      "stateMutability": "view",
      "type": "function"
    }
  ],
  "bytecode": "0x6080604052336000806101000a81548173ffffffffffffffffffffffffffffffffffffffff021916908373ffffffffffffffffffffffffffffffffffffffff160217905550610854806100536000396000f3fe6080604052600436106100915760003560e01c8063b25dd0f411610059578063b25dd0f414610381578063bfab3db9146103af578063dbdff2c1146103cd578063e25d5d91146103f8578063edfe013c1461042357610091565b806327dc297e1461009657806338bbfa501461016857806341955923146102d15780636f9fb98a146102ff578063893d20e81461032a575b600080fd5b3480156100a257600080fd5b50610166600480360360408110156100b957600080fd5b8101908080359060200190929190803590602001906401000000008111156100e057600080fd5b8201836020820111156100f257600080fd5b8035906020019184600183028401116401000000008311171561011457600080fd5b91908080601f016020809104026020016040519081016040528093929190818152602001838380828437600081840152601f19601f820116905080830192505050505050509192919290505050610441565b005b34801561017457600080fd5b506102cf6004803603606081101561018b57600080fd5b8101908080359060200190929190803590602001906401000000008111156101b257600080fd5b8201836020820111156101c457600080fd5b803590602001918460018302840111640100000000831117156101e657600080fd5b91908080601f016020809104026020016040519081016040528093929190818152602001838380828437600081840152601f19601f8201169050808301925050505050505091929192908035906020019064010000000081111561024957600080fd5b82018360208201111561025b57600080fd5b8035906020019184600183028401116401000000008311171561027d57600080fd5b91908080601f016020809104026020016040519081016040528093929190818152602001838380828437600081840152601f19601f820116905080830192505050505050509192919290505050610484565b005b6102fd600480360360208110156102e757600080fd5b8101908080359060200190929190505050610489565b005b34801561030b57600080fd5b50610314610570565b6040518082815260200191505060405180910390f35b34801561033657600080fd5b5061033f6105d3565b604051808273ffffffffffffffffffffffffffffffffffffffff1673ffffffffffffffffffffffffffffffffffffffff16815260200191505060405180910390f35b6103ad6004803603602081101561039757600080fd5b81019080803590602001909291905050506105fc565b005b6103b76106c2565b6040518082815260200191505060405180910390f35b3480156103d957600080fd5b506103e261077a565b6040518082815260200191505060405180910390f35b34801561040457600080fd5b5061040d610784565b6040518082815260200191505060405180910390f35b61042b61078e565b6040518082815260200191505060405180910390f35b610480828260006040519080825280601f01601f19166020018201604052801561047a5781602001600182028038833980820191505090505b50610484565b5050565b505050565b6000341180156104a457506002600854816104a057fe5b0434105b610516576040517f08c379a000000000000000000000000000000000000000000000000000000000815260040180806020018281038252601a8152602001807f43616e206e6f742070617920696e2063617365206f662077696e00000000000081525060200191505060405180910390fd5b33600b60006101000a81548173ffffffffffffffffffffffffffffffffffffffff021916908373ffffffffffffffffffffffffffffffffffffffff16021790555034600c8190555080600d8190555061056d610801565b50565b60008060009054906101000a900473ffffffffffffffffffffffffffffffffffffffff1673ffffffffffffffffffffffffffffffffffffffff163373ffffffffffffffffffffffffffffffffffffffff16146105cb57600080fd5b600854905090565b60008060009054906101000a900473ffffffffffffffffffffffffffffffffffffffff16905090565b806007819055507fdd9e2bb02715082d7ad3303c337c653141faddaa5690c22930da715c8361dbfd816040518082815260200191505060405180910390a16000600c54905081600d5414156106ad57600281029050806008600082825403925050819055503373ffffffffffffffffffffffffffffffffffffffff166108fc829081150290604051600060405180830381858888f193505050501580156106a7573d6000803e3d6000fd5b506106be565b346008600082825401925050819055505b5050565b60008060009054906101000a900473ffffffffffffffffffffffffffffffffffffffff1673ffffffffffffffffffffffffffffffffffffffff163373ffffffffffffffffffffffffffffffffffffffff161461071d57600080fd5b6000600854905060006008819055503373ffffffffffffffffffffffffffffffffffffffff166108fc829081150290604051600060405180830381858888f19350505050158015610772573d6000803e3d6000fd5b508091505090565b6000600954905090565b6000600754905090565b60008060009054906101000a900473ffffffffffffffffffffffffffffffffffffffff1673ffffffffffffffffffffffffffffffffffffffff163373ffffffffffffffffffffffffffffffffffffffff16146107e957600080fd5b34600860008282540192505081905550600854905090565b6002428161080b57fe5b0660098190555061081d6009546105fc565b56fea265627a7a72315820238174fb912ad19ac9b32803de3fe2ada763d48fda757d5250db330e57a9161a64736f6c634300050c0032",
  "source": "pragma solidity 0.5.12;\nimport \"./Ownable.sol\";\nimport \"./provableAPI.sol\";\n\n\ncontract CoinFlip is Ownable, usingProvable {\n\n    uint256 private coinState;\n    uint256 constant NUM_RANDOM_BYTES_REQUESTED = 1;\n    uint contractBalance;\n    uint256 randomNumber;\n    event LogNewProvableQuery(string description);\n    event generatedRandomNumber(uint256 randomNumber);\n    event coinFlipped(uint _coinState);\n    mapping(address => bytes32) userQuery;\n\n\n    address gamblerAddress;\n    uint betAmount;\n    uint256 betChoice;\n\n    function __callback(bytes32 _queryId, string memory _result, bytes memory _proof) public {\n      /*require(msg.sender == provable_cbAddress());\n      //if (provable_randomDS_proofVerify__returnCode(_queryId, _result, _proof) == 0) {\n        randomNumber = uint256(keccak256(abi.encodePacked(_result)));\n        uint256 latestNumber = randomNumber % 2;\n        applyResult(_queryId, latestNumber);\n        emit generatedRandomNumber(latestNumber);\n      //}*/\n    }\n\n    function update() internal {\n      /*uint256 QUERY_EXECUTION_DELAY = 0;\n      uint256 GAS_FOR_CALLBACK = 200000;\n      bytes32 calledQueryId = provable_newRandomDSQuery(QUERY_EXECUTION_DELAY, NUM_RANDOM_BYTES_REQUESTED, GAS_FOR_CALLBACK);\n      userQuery[gamblerAddress] = calledQueryId;\n      emit LogNewProvableQuery(\"Provable query was sent, standing by for the answer\");*/\n      randomNumber = now % 2;\n      applyResult(randomNumber);\n    }\n\n    function applyResult(uint256 _latestNumber) public payable{\n        coinState = _latestNumber;\n        emit coinFlipped(_latestNumber);\n        uint winAmount =  betAmount;\n        if(betChoice == _latestNumber) {\n          winAmount = winAmount * 2;\n          contractBalance -= winAmount;\n          msg.sender.transfer(winAmount);\n        } else {\n         contractBalance += msg.value;\n       }\n    }\n\n\n    function placeBetAndFlip(uint256 _betChoice) public payable {\n        require(msg.value > 0 && msg.value < contractBalance/2, \"Can not pay in case of win\" );\n        gamblerAddress = msg.sender;\n        betAmount = msg.value; //oracle fees contract gets from user\n        betChoice = _betChoice;\n        update();\n    }\n\n    function getRandomNumber() public view returns(uint256) {\n        return randomNumber;\n    }\n\n    function getCoinState() public view returns(uint) {\n        return coinState;\n    }\n\n    function getOwner() public view returns(address) {\n      return owner;\n    }\n\n    function withdrawContractBalance() onlyOwner public payable returns(uint){\n      uint transferBalance = contractBalance;\n      contractBalance = 0;\n      msg.sender.transfer(transferBalance);\n      return transferBalance;\n    }\n\n    function depositeContractBalance() onlyOwner public payable returns(uint) {\n      contractBalance += msg.value;\n      return contractBalance;\n    }\n\n    function getContractBalance() onlyOwner view public returns(uint) {\n      return contractBalance;\n    }\n}\n",
  "sourcePath": "/Users/harsh/CryptoDev/Consensys/gamble-react/contracts/CoinFlip.sol",
  "compiler": {
    "name": "solc",
    "version": "0.5.12+commit.7709ece9.Emscripten.clang"
  },
  "schemaVersion": "3.0.16",
  "updatedAt": "2021-05-17T01:49:48.074Z",
  "devdoc": {
    "methods": {
      "__callback(bytes32,string)": {
        "details": "The following `__callback` functions are just placeholders ideally     meant to be defined in child contract when proofs are used.     The function bodies simply silence compiler warnings."
      }
    }
  },
  "userdoc": {
    "methods": {}
  }
}